:100000000C9473000C94A4000C94A4000C94A40011
:100010000C94A4000C94A4000C94A4000C94A400D0
:100020000C94A4000C94A4000C94A4000C94A400C0
:100030000C94A4000C94A4000C94A4000C94A400B0
:100040000C94A4000C94A4000C94A4000C94A400A0
:100050000C94A4000C94A4000C94A4000C94F7003D
:100060000C94A4000C94A8020C9498030C94A40083
:100070000C94A4000C94A4000C94A4000C94A40070
:100080000C94A4000C94A4000C94A4000C94A40060
:100090000C94DC020C94D7030C94A4000C94A400E0
:1000A0000C94A4000C94A4000C94A4000C94A40040
:1000B0000C94A4000C94A4000C94A4000C94A40030
:1000C0000C94A4000C94A4000C94A4000C941003B1
:1000D0000C9416040C94A4000C9444030C94550442
:1000E0000C94A400150511241FBECFEFD1E2DEBF92
:1000F000CDBF00E00CBF12E0A0E0B2E0E0EAFEE01D
:1001000000E00BBF02C007900D92A031B107D9F7F4
:1001100015E0A0E1B2E001C01D92A130B107E1F706
:1001200010E0C6EED0E000E006C022970109FE0113
:100130000BBF0E944A07C43ED10780E00807A9F719
:100140000E94EA000C944E070C940000E0E1F2E0FB
:100150008FEF819392E0E035F907D9F71092100202
:100160001092110298E09093120284E0809313029F
:1001700090931402809315028093160280931702C5
:10018000109218021092190286E080931A0280934E
:100190001B02089540E052EC61E070E08FEB92E0CA
:1001A0000E9494040C94A60068EE73E080E090E056
:1001B0000E946B014AE050E0609110028FEB92E0E8
:1001C0000E940F074AE050E0609115028FEB92E029
:1001D0000C940F070E9491010E94CA00C7E7D3E068
:1001E0000E94D4002097E1F30E947703F9CF1F9279
:1001F0000F920FB60F9211242F933F938F939F93DB
:10020000AF93BF938091500290915102A0915202FE
:10021000B091530230915802232F2D5F2D3720F4D7
:100220000196A11DB11D05C0232F2A570296A11DBD
:10023000B11D209358028093500290935102A093D5
:100240005202B09353028091540290915502A091B2
:100250005602B09157020196A11DB11D8093540220
:1002600090935502A0935602B0935702BF91AF915D
:100270009F918F913F912F910F900FBE0F901F90E4
:1002800018950F931F939FB7F89400915402109103
:100290005502209156023091570286B5A89B06C0A0
:1002A0008F3F21F00F5F1F4F2F4F3F4F9FBF322FC8
:1002B000212F102F0027080F111D211D311D42E095
:1002C000000F111F221F331F4A95D1F7B801C90132
:1002D0001F910F910895CF92DF92EF92FF92CF93EB
:1002E000DF936B017C010E944101EB010EC00E9473
:1002F00041016C1B7D0B683E734038F081E0C81AE9
:10030000D108E108F108C851DC4FC114D104E1045F
:10031000F10469F7DF91CF91FF90EF90DF90CF90DC
:100320000895789484B5826084BD84B5816084BD6D
:1003300085B5826085BD85B5816085BDEEE6F0E05E
:10034000808181608083E1E8F0E0108280818260BA
:100350008083808181608083E0E8F0E0808181603B
:100360008083E1EBF0E0808184608083E0EBF0E06B
:10037000808181608083E1E9F0E080818260808318
:10038000808181608083E0E9F0E08081816080830A
:10039000E1EAF0E0808182608083808181608083F7
:1003A000E0EAF0E0808181608083E1E2F1E0808139
:1003B00082608083808181608083E0E2F1E08081DF
:1003C00081608083EAE7F0E08081846080838081BF
:1003D0008260808380818160808380818068808367
:1003E0001092C1000895FC0184859585FC01E05CB4
:1003F000FF4F20813181FC01EE5BFF4F80819181B5
:10040000281B390B2F733327C9010895FC018485FC
:100410009585FC01E05CFF4F40815181FC01EE5B62
:10042000FF4F208131814217530741F00190F08145
:10043000E02DE80FF91F208130E002C02FEF3FEFE1
:10044000C9010895FC0184859585FC01E05CFF4F9E
:1004500040815181FC01EE5BFF4F208131814217C9
:10046000530781F0A081B181A80FB91F8C91208121
:1004700031812F5F3F4F2F73332731832083282F04
:1004800030E002C02FEF3FEFC9010895FC0181A1C8
:10049000882329F0A489B5898C9186FFFBCF11A20E
:1004A0000895CF93DF93FC0126853785D901A05CA1
:1004B000BF4F8D919C91119701968F739927E901F8
:1004C000CE5BDF4F4881598184179507D9F30D9092
:1004D000BC91A02DA20FB31F6C93A685B785A05C1D
:1004E000BF4F11969C938E93A689B7892C9181E07A
:1004F00090E0078C02C0880F991F0A94E2F7282B1E
:100500002C9381E081A30488F589E02D80818064AB
:10051000808381E090E0DF91CF910895FB01E05C62
:10052000FF4F208131812F5F3F4F2F733327DB0136
:10053000AE5BBF4F4D915C912417350739F0A08118
:10054000B181A60FB71F8C9331832083089508953E
:100550001F920F920FB60F9211240BB60F922F938A
:100560003F934F935F936F937F938F939F93AF933B
:10057000BF93EF93FF938091C00082FD07C08091ED
:10058000C6006DEB74E00E948E0202C08091C6002E
:10059000FF91EF91BF91AF919F918F917F916F915B
:1005A0005F914F913F912F910F900BBE0F900FBE17
:1005B0000F901F90189508951F920F920FB60F92EB
:1005C00011240BB60F922F933F934F935F936F932A
:1005D0007F938F939F93AF93BF93EF93FF938091FC
:1005E000C80082FD07C08091CE0065E374E00E94E0
:1005F0008E0202C08091CE00FF91EF91BF91AF912A
:100600009F918F917F916F915F914F913F912F912A
:100610000F900BBE0F900FBE0F901F90189508956E
:100620001F920F920FB60F9211240BB60F922F93B9
:100630003F934F935F936F937F938F939F93AF936A
:10064000BF93EF93FF938091D00082FD07C080910C
:10065000D6006DEA73E00E948E0202C08091D6003F
:10066000FF91EF91BF91AF919F918F917F916F918A
:100670005F914F913F912F910F900BBE0F900FBE46
:100680000F901F90189508951F920F920FB60F921A
:1006900011240BB60F922F933F934F935F936F9359
:1006A0007F938F939F93AF93BF93EF93FF9380912B
:1006B000300182FD07C08091360165E273E00E943F
:1006C0008E0202C080913601FF91EF91BF91AF91F0
:1006D0009F918F917F916F915F914F913F912F915A
:1006E0000F900BBE0F900FBE0F901F9018958FEBC1
:1006F00092E00E94F301892B11F00E94A7028DE97C
:1007000092E00E94F301892B11F00E94DB028BE73B
:1007100092E00E94F301892B11F00E940F0389E5FA
:1007200092E00E94F301892B11F00C944303089589
:100730001F920F920FB60F9211240BB60F922F93A8
:100740003F938F939F93EF93FF932091B904309140
:10075000BA048091BB049091BC042817390731F486
:100760008091C1008F7D8093C10014C0E091BB04D3
:10077000F091BC04E758FB4F20818091BB0490911D
:10078000BC0401968F7399279093BC048093BB049B
:100790002093C600FF91EF919F918F913F912F91F0
:1007A0000F900BBE0F900FBE0F901F9018951F92C9
:1007B0000F920FB60F9211240BB60F922F933F9307
:1007C0008F939F93EF93FF932091310430913204E4
:1007D00080913304909134042817390731F48091C3
:1007E000C9008F7D8093C90014C0E0913304F0915B
:1007F0003404EF50FC4F20818091330490913404F5
:1008000001968F7399279093340480933304209337
:10081000CE00FF91EF919F918F913F912F910F907B
:100820000BBE0F900FBE0F901F9018951F920F9246
:100830000FB60F9211240BB60F922F933F938F9305
:100840009F93EF93FF932091A9033091AA03809186
:10085000AB039091AC032817390731F48091D10094
:100860008F7D8093D10014C0E091AB03F091AC0375
:10087000E759FC4F20818091AB039091AC03019626
:100880008F7399279093AC038093AB032093D6008A
:10089000FF91EF919F918F913F912F910F900BBE00
:1008A0000F900FBE0F901F9018951F920F920FB6CA
:1008B0000F9211240BB60F922F933F938F939F9318
:1008C000EF93FF9320912103309122038091230322
:1008D000909124032817390731F4809131018F7DDD
:1008E0008093310114C0E0912303F0912403EF5170
:1008F000FD4F2081809123039091240301968F73F3
:100900009927909324038093230320933601FF912A
:10091000EF919F918F913F912F910F900BBE0F9070
:100920000FBE0F901F901895CF92DF92EF92FF921B
:10093000CF93DF93EC016A017B01411581EE5807EB
:1009400061057105F9F0EC89FD8981E090E008A06E
:1009500002C0880F991F0A94E2F7808360E079E073
:100960008DE390E0A70196010E94280721503109EC
:10097000410951095695479537952795211580E1ED
:10098000380798F0EC89FD89108260E874E88EE100
:1009900090E0A70196010E942807215031094109E2
:1009A00051095695479537952795E889F9893083F8
:1009B000EA89FB89208319A2EE89FF89408181E0C1
:1009C00090E09C010C8C02C0220F331F0A94E2F7C6
:1009D000422B4083EE89FF8940819C010D8C02C02F
:1009E000220F331F0A94E2F7422B4083EE89FF89DE
:1009F00040819C010E8C02C0220F331F0A94E2F743
:100A0000422B4083EE89FF8920810F8C02C0880F22
:100A1000991F0A94E2F7809582238083DF91CF911A
:100A2000FF90EF90DF90CF900895CF931092C20285
:100A30001092C10288EE93E0A0E0B0E08093C30280
:100A40009093C402A093C502B093C60224E032E0A2
:100A50003093C0022093BF024DEB54E05093CC0280
:100A60004093CB0249E754E05093CE024093CD022D
:100A700045EC50E05093D0024093CF0244EC50E05C
:100A80005093D2024093D10240EC50E05093D402F4
:100A90004093D30241EC50E05093D6024093D502EC
:100AA00042EC50E05093D8024093D70246EC50E01D
:100AB0005093DA024093D902C4E0C093DB02F3E022
:100AC000F093DC02E7E0E093DD0275E07093DE0274
:100AD00061E06093DF021092A00210929F02809367
:100AE000A1029093A202A093A302B093A402309318
:100AF0009E0220939D0245E354E05093AA02409346
:100B0000A90241EF53E05093AC024093AB024DEC8D
:100B100050E05093AE024093AD024CEC50E0509345
:100B2000B0024093AF0248EC50E05093B2024093C1
:100B3000B10249EC50E05093B4024093B3024AEC46
:100B400050E05093B6024093B5024EEC50E0509303
:100B5000B8024093B702C093B902F093BA02E0938F
:100B6000BB027093BC026093BD0210927E02109291
:100B70007D0280937F0290938002A0938102B093C4
:100B8000820230937C0220937B024DEA53E0509323
:100B900088024093870249E653E050938A024093CB
:100BA000890245ED50E050938C0240938B0244ED56
:100BB00050E050938E0240938D0240ED50E05093F0
:100BC000900240938F0241ED50E050939202409387
:100BD000910242ED50E0509394024093930246ED0F
:100BE00050E05093960240939502C0939702F09381
:100BF0009802E093990270939A0260939B0210927C
:100C00005C0210925B0280935D0290935E02A0935F
:100C10005F02B093600230935A022093590285E23A
:100C200093E0909366028093650281EE92E0909348
:100C300068028093670285E391E090936A02809353
:100C4000690284E391E090936C0280936B0280E3ED
:100C500091E090936E0280936D0281E391E0909316
:100C6000700280936F0282E391E09093720280930E
:100C7000710286E391E09093740280937302C093B3
:100C80007502F0937602E093770270937802609396
:100C90007902CF910895CF92DF92EF92FF920F9356
:100CA0001F93CF93DF936C01EB017A01E60EF71EE1
:100CB00000E010E00BC06991D601ED91FC9101902C
:100CC000F081E02DC6011995080F191FCE15DF051B
:100CD00091F7C801DF91CF911F910F91FF90EF9095
:100CE000DF90CF9008956115710581F0DB010D90C3
:100CF0000020E9F7AD0141505109461B570BDC01BB
:100D0000ED91FC910280F381E02D199480E090E058
:100D10000895DC01ED91FC910190F081E02D199492
:100D20000F931F93CF93DF93EC016DE00E94890630
:100D30008C016AE0CE010E9489069C01200F311FC0
:100D4000C901DF91CF911F910F9108954F925F924A
:100D50006F927F929F92AF92BF92CF92DF92EF926B
:100D6000FF920F931F93CF93DF93CDB7DEB7A19779
:100D70000FB6F894DEBF0FBECDBF5C016A017B01E8
:100D8000922E19A281E0821710F08AE0982E8E012F
:100D90000F5D1F4F492C512C612C712CC701B601DE
:100DA000A30192010E9428078C2D929E8019112484
:100DB000015011098A3010F4805D01C0895CF8018E
:100DC000808369017A01C114D104E104F10431F78F
:100DD000B801C5010E947306A1960FB6F894DEBF54
:100DE0000FBECDBFDF91CF911F910F91FF90EF907C
:100DF000DF90CF90BF90AF909F907F906F905F906B
:100E00004F9008952115310541F4DC01ED91FC91DD
:100E10000190F081E02D642F19940C94A6060F9395
:100E20001F93CF93DF93EC019A01462F50E060E0CF
:100E300070E00E9402078C01CE010E94900698018A
:100E4000280F391FC901DF91CF911F910F9108958C
:100E5000A1E21A2EAA1BBB1BFD010DC0AA1FBB1FBE
:100E6000EE1FFF1FA217B307E407F50720F0A21B30
:100E7000B30BE40BF50B661F771F881F991F1A949D
:100E800069F760957095809590959B01AC01BD01C7
:100E9000CF0108950790F691E02D1994F894FFCFB3
:100EA0000000000051024B06F30122020602460236
:00000001FF
